{
  "contractName": "BallotV4",
  "abi": [
    {
      "constant": true,
      "inputs": [],
      "name": "state",
      "outputs": [
        {
          "name": "",
          "type": "uint8"
        }
      ],
      "payable": false,
      "stateMutability": "view",
      "type": "function"
    },
    {
      "inputs": [
        {
          "name": "numProposals",
          "type": "uint8"
        }
      ],
      "payable": false,
      "stateMutability": "nonpayable",
      "type": "constructor"
    },
    {
      "constant": false,
      "inputs": [
        {
          "name": "x",
          "type": "uint8"
        }
      ],
      "name": "changeState",
      "outputs": [],
      "payable": false,
      "stateMutability": "nonpayable",
      "type": "function"
    },
    {
      "constant": false,
      "inputs": [
        {
          "name": "voter",
          "type": "address"
        }
      ],
      "name": "register",
      "outputs": [],
      "payable": false,
      "stateMutability": "nonpayable",
      "type": "function"
    },
    {
      "constant": false,
      "inputs": [
        {
          "name": "toProposal",
          "type": "uint8"
        }
      ],
      "name": "vote",
      "outputs": [],
      "payable": false,
      "stateMutability": "nonpayable",
      "type": "function"
    },
    {
      "constant": true,
      "inputs": [],
      "name": "reqWinner",
      "outputs": [
        {
          "name": "winningProposal",
          "type": "uint8"
        }
      ],
      "payable": false,
      "stateMutability": "view",
      "type": "function"
    },
    {
      "constant": true,
      "inputs": [],
      "name": "checkVotes",
      "outputs": [
        {
          "name": "votesLeft",
          "type": "uint8"
        }
      ],
      "payable": false,
      "stateMutability": "view",
      "type": "function"
    },
    {
      "constant": false,
      "inputs": [],
      "name": "buyVotes",
      "outputs": [],
      "payable": false,
      "stateMutability": "nonpayable",
      "type": "function"
    }
  ],
  "bytecode": "0x608060405260038060006101000a81548160ff0219169083600381111561002257fe5b021790555034801561003357600080fd5b50604051602080610b9f8339810180604052602081101561005357600080fd5b8101908080519060200190929190505050336000806101000a81548173ffffffffffffffffffffffffffffffffffffffff021916908373ffffffffffffffffffffffffffffffffffffffff1602179055506002600160008060009054906101000a900473ffffffffffffffffffffffffffffffffffffffff1673ffffffffffffffffffffffffffffffffffffffff1673ffffffffffffffffffffffffffffffffffffffff168152602001908152602001600020600001819055508060ff1660028161011e9190610149565b506001600360006101000a81548160ff0219169083600381111561013e57fe5b02179055505061019c565b8154818355818111156101705781836000526020600020918201910161016f9190610175565b5b505050565b61019991905b80821115610195576000808201600090555060010161017b565b5090565b90565b6109f4806101ab6000396000f3fe608060405234801561001057600080fd5b506004361061007d5760003560e01c8063730bd9291161005b578063730bd9291461011b5780637928ee511461013f578063b3f98adc14610149578063c19d93fb1461017a5761007d565b8063268f1153146100825780634420e486146100b3578063508b30c9146100f7575b600080fd5b6100b16004803603602081101561009857600080fd5b81019080803560ff1690602001909291905050506101a6565b005b6100f5600480360360208110156100c957600080fd5b81019080803573ffffffffffffffffffffffffffffffffffffffff169060200190929190505050610256565b005b6100ff610498565b604051808260ff1660ff16815260200191505060405180910390f35b61012361054f565b604051808260ff1660ff16815260200191505060405180910390f35b6101476105a6565b005b6101786004803603602081101561015f57600080fd5b81019080803560ff169060200190929190505050610733565b005b610182610973565b6040518082600381111561019257fe5b60ff16815260200191505060405180910390f35b6000809054906101000a900473ffffffffffffffffffffffffffffffffffffffff1673ffffffffffffffffffffffffffffffffffffffff163373ffffffffffffffffffffffffffffffffffffffff16146101ff57600080fd5b600360009054906101000a900460ff16600381111561021a57fe5b81600381111561022657fe5b1161023057600080fd5b80600360006101000a81548160ff0219169083600381111561024e57fe5b021790555050565b600180600381111561026457fe5b600360009054906101000a900460ff16600381111561027f57fe5b1461028957600080fd5b6000809054906101000a900473ffffffffffffffffffffffffffffffffffffffff1673ffffffffffffffffffffffffffffffffffffffff163373ffffffffffffffffffffffffffffffffffffffff16146102e257600080fd5b600160008373ffffffffffffffffffffffffffffffffffffffff1673ffffffffffffffffffffffffffffffffffffffff16815260200190815260200160002060010160009054906101000a900460ff161561033c57600080fd5b60018060008473ffffffffffffffffffffffffffffffffffffffff1673ffffffffffffffffffffffffffffffffffffffff16815260200190815260200160002060000181905550600a600160008473ffffffffffffffffffffffffffffffffffffffff1673ffffffffffffffffffffffffffffffffffffffff16815260200190815260200160002060010160026101000a81548160ff021916908360ff16021790555060018060008473ffffffffffffffffffffffffffffffffffffffff1673ffffffffffffffffffffffffffffffffffffffff16815260200190815260200160002060010160036101000a81548160ff0219169083151502179055506000600160008473ffffffffffffffffffffffffffffffffffffffff1673ffffffffffffffffffffffffffffffffffffffff16815260200190815260200160002060010160046101000a81548160ff0219169083151502179055505050565b600060038060038111156104a857fe5b600360009054906101000a900460ff1660038111156104c357fe5b146104cd57600080fd5b600080905060008090505b6002805490508160ff16101561053e578160028260ff16815481106104f957fe5b906000526020600020016000015411156105315760028160ff168154811061051d57fe5b906000526020600020016000015491508093505b80806001019150506104d8565b50600181101561054a57fe5b505090565b6000600160003373ffffffffffffffffffffffffffffffffffffffff1673ffffffffffffffffffffffffffffffffffffffff16815260200190815260200160002060010160029054906101000a900460ff16905090565b60011515600160003373ffffffffffffffffffffffffffffffffffffffff1673ffffffffffffffffffffffffffffffffffffffff16815260200190815260200160002060010160039054906101000a900460ff1615151461060657600080fd5b6000600160003373ffffffffffffffffffffffffffffffffffffffff1673ffffffffffffffffffffffffffffffffffffffff16815260200190815260200160002060010160046101000a81548160ff021916908315150217905561066957600080fd5b600a600160003373ffffffffffffffffffffffffffffffffffffffff1673ffffffffffffffffffffffffffffffffffffffff16815260200190815260200160002060010160028282829054906101000a900460ff160192506101000a81548160ff021916908360ff16021790555060018060003373ffffffffffffffffffffffffffffffffffffffff1673ffffffffffffffffffffffffffffffffffffffff16815260200190815260200160002060010160046101000a81548160ff021916908315150217905550565b60018060003373ffffffffffffffffffffffffffffffffffffffff1673ffffffffffffffffffffffffffffffffffffffff16815260200190815260200160002060010160029054906101000a900460ff1660ff16101561079257600080fd5b61079a610986565b600160003373ffffffffffffffffffffffffffffffffffffffff1673ffffffffffffffffffffffffffffffffffffffff1681526020019081526020016000206040518060c0016040529081600082015481526020016001820160009054906101000a900460ff161515151581526020016001820160019054906101000a900460ff1660ff1660ff1681526020016001820160029054906101000a900460ff1660ff1660ff1681526020016001820160039054906101000a900460ff161515151581526020016001820160049054906101000a900460ff161515151581525050905080602001511561088a57600080fd5b6002805490508260ff161061089e57600080fd5b6001816060015160ff1610156108b357600080fd5b600181602001901515908115158152505081816040019060ff16908160ff1681525050600160028360ff16815481106108e857fe5b906000526020600020016000016000828254019250508190555060018060003373ffffffffffffffffffffffffffffffffffffffff1673ffffffffffffffffffffffffffffffffffffffff16815260200190815260200160002060010160028282829054906101000a900460ff160392506101000a81548160ff021916908360ff1602179055505050565b600360009054906101000a900460ff1681565b6040518060c0016040528060008152602001600015158152602001600060ff168152602001600060ff168152602001600015158152602001600015158152509056fea165627a7a7230582025ce2e5daccf1e99fd637b1a02c8fedf4f6bcf7413cc878ee5a4554787eadf0f0029",
  "source": "pragma solidity ^0.5.2;\ncontract BallotV4 {\n\n    struct Voter {                     \n        uint weight;\n        bool voted;\n        uint8 vote;\n        uint8 votes;\n        bool paymentinfo;\n        bool purchasedToday;\n    }\n    struct Proposal {                  \n        uint voteCount;\n    }\n\n    address chairperson;\n    mapping(address => Voter) voters;  //voter addresses and names\n    Proposal[] proposals; //number of proposals used from length of array\n    \n\n    enum Phase {Init,Regs, Vote, Done}   //user-defined types\n    Phase public state = Phase.Done; \n    \n       //modifiers\n    modifier validPhase(Phase reqPhase) \n     { require(state == reqPhase); \n      _; \n     } \n    modifier onlyChair() \n     {require(msg.sender == chairperson);\n      _;\n     }\n     modifier hasVotes()\n     {require(voters[msg.sender].votes >= 1);\n      _;\n     }\n     modifier hasMoney()\n     {require(voters[msg.sender].paymentinfo == true);\n     _;\n     }\n     \n    constructor (uint8 numProposals) public  {\n        chairperson = msg.sender;\n        voters[chairperson].weight = 2; // weight 2 for testing purposes\n        proposals.length = numProposals;\n        state = Phase.Regs;\n    }\n    \n     function changeState(Phase x) onlyChair public {\n        \n        require (x > state );\n      \n        state = x;\n     }\n    \n    function register(address voter) public validPhase(Phase.Regs) onlyChair {\n       \n        require (! voters[voter].voted);\n        \n        voters[voter].weight = 1;\n        voters[voter].votes = 10;\n        voters[voter].paymentinfo = true;\n        voters[voter].purchasedToday = false;\n        \n       // voters[voter].voted = false;\n    }\n\n   \n    function vote(uint8 toProposal) hasVotes() public{ //checks to see if the sender has voted or not\n      \n        Voter memory sender = voters[msg.sender];\n        \n        require (!sender.voted); \n        require (toProposal < proposals.length); \n        require (sender.votes >= 1);\n        \n        sender.voted = true;\n        sender.vote = toProposal;   \n        proposals[toProposal].voteCount += 1;\n        voters[msg.sender].votes -= 1;\n    }\n\n    function reqWinner() public validPhase(Phase.Done) view returns (uint8 winningProposal) { //checksforwinning\n       \n        uint256 winningVoteCount = 0;\n        for (uint8 prop = 0; prop < proposals.length; prop++) \n            if (proposals[prop].voteCount > winningVoteCount) {\n                winningVoteCount = proposals[prop].voteCount;\n                winningProposal = prop;\n            }\n       assert(winningVoteCount>=1); //check for state changes and overflow/underflow\n    }\n    \n    function checkVotes() public view returns (uint8 votesLeft) {\n        \n        votesLeft = voters[msg.sender].votes;\n    }\n    \n    function buyVotes() public hasMoney(){\n        require(voters[msg.sender].purchasedToday = false);\n        \n        voters[msg.sender].votes += 10;\n        voters[msg.sender].purchasedToday = true;\n    }\n}",
  "sourcePath": "F:/426/ballot-contract/contracts/Ballot.sol",
  "compiler": {
    "name": "solc",
    "version": "0.5.8+commit.23d335f2.Emscripten.clang"
  },
  "schemaVersion": "3.0.16",
  "updatedAt": "2019-10-27T20:55:53.805Z",
  "devdoc": {
    "methods": {}
  },
  "userdoc": {
    "methods": {}
  }
}