{
  "contractName": "Ballot",
  "abi": [
    {
      "constant": true,
      "inputs": [],
      "name": "startTime",
      "outputs": [
        {
          "name": "",
          "type": "uint256"
        }
      ],
      "payable": false,
      "stateMutability": "view",
      "type": "function"
    },
    {
      "inputs": [
        {
          "name": "numProposals",
          "type": "uint8"
        }
      ],
      "payable": false,
      "stateMutability": "nonpayable",
      "type": "constructor"
    },
    {
      "constant": false,
      "inputs": [
        {
          "name": "voter",
          "type": "address"
        }
      ],
      "name": "register",
      "outputs": [],
      "payable": false,
      "stateMutability": "nonpayable",
      "type": "function"
    },
    {
      "constant": false,
      "inputs": [
        {
          "name": "toProposal",
          "type": "uint8"
        }
      ],
      "name": "vote",
      "outputs": [],
      "payable": false,
      "stateMutability": "nonpayable",
      "type": "function"
    },
    {
      "constant": true,
      "inputs": [],
      "name": "reqWinner",
      "outputs": [
        {
          "name": "_winningProposal",
          "type": "uint8"
        }
      ],
      "payable": false,
      "stateMutability": "view",
      "type": "function"
    }
  ],
  "bytecode": "0x608060405234801561001057600080fd5b506040516020806104fc8339810180604052602081101561003057600080fd5b8101908080519060200190929190505050336000806101000a81548173ffffffffffffffffffffffffffffffffffffffff021916908373ffffffffffffffffffffffffffffffffffffffff1602179055506002600160008060009054906101000a900473ffffffffffffffffffffffffffffffffffffffff1673ffffffffffffffffffffffffffffffffffffffff1673ffffffffffffffffffffffffffffffffffffffff168152602001908152602001600020600001819055508060ff166002816100fb9190610102565b5050610155565b81548183558181111561012957818360005260206000209182019101610128919061012e565b5b505050565b61015291905b8082111561014e5760008082016000905550600101610134565b5090565b90565b610398806101646000396000f3fe608060405234801561001057600080fd5b506004361061004c5760003560e01c80634420e48614610051578063508b30c91461009557806378e97925146100b9578063b3f98adc146100d7575b600080fd5b6100936004803603602081101561006757600080fd5b81019080803573ffffffffffffffffffffffffffffffffffffffff169060200190929190505050610108565b005b61009d6101ad565b604051808260ff1660ff16815260200191505060405180910390f35b6100c1610230565b6040518082815260200191505060405180910390f35b610106600480360360208110156100ed57600080fd5b81019080803560ff169060200190929190505050610236565b005b60018060008373ffffffffffffffffffffffffffffffffffffffff1673ffffffffffffffffffffffffffffffffffffffff168152602001908152602001600020600001819055506000600160008373ffffffffffffffffffffffffffffffffffffffff1673ffffffffffffffffffffffffffffffffffffffff16815260200190815260200160002060010160006101000a81548160ff02191690831515021790555050565b6000806000905060008090505b6002805490508160ff161015610220578160028260ff16815481106101db57fe5b906000526020600020016000015411156102135760028160ff16815481106101ff57fe5b906000526020600020016000015491508092505b80806001019150506101ba565b50600181101561022c57fe5b5090565b60035481565b61023e610346565b600160003373ffffffffffffffffffffffffffffffffffffffff1673ffffffffffffffffffffffffffffffffffffffff168152602001908152602001600020604051806060016040529081600082015481526020016001820160009054906101000a900460ff161515151581526020016001820160019054906101000a900460ff1660ff1660ff168152505090508060200151806102e457506002805490508260ff1610155b156102ef5750610343565b600181602001901515908115158152505081816040019060ff16908160ff1681525050806000015160028360ff168154811061032757fe5b9060005260206000200160000160008282540192505081905550505b50565b604051806060016040528060008152602001600015158152602001600060ff168152509056fea165627a7a723058201bdfbc2970820cded27a2085c5f686fede34b9e8d0d3057e14f22182a619dc020029",
  "source": "pragma solidity ^0.5.0;\ncontract Ballot {\n\n    struct Voter {                     \n        uint weight; //their vote\n        bool voted;\n        uint8 vote; //who they voted for \n    }\n    struct Proposal {                  \n        uint voteCount;\n    }\n\n    address chairperson;\n    mapping(address => Voter) voters;  \n    Proposal[] proposals;\n    uint public startTime;\n    \n    constructor(uint8 numProposals) public  {\n        chairperson = msg.sender;\n        voters[chairperson].weight = 2; // weight 2 for testing purposes\n        proposals.length = numProposals;\n    }\n    \n    function register(address voter) public  {\n        voters[voter].weight = 1;\n        voters[voter].voted = false;\n    }\n\n   \n    function vote(uint8 toProposal) public  {\n        Voter memory sender = voters[msg.sender];\n        if (sender.voted || toProposal >= proposals.length) return; \n        sender.voted = true;\n        sender.vote = toProposal;   \n        proposals[toProposal].voteCount += sender.weight;\n    }\n\n    function reqWinner() public view returns (uint8 _winningProposal) {\n        uint256 winningVoteCount = 0;\n        for (uint8 prop = 0; prop < proposals.length; prop++) \n            if (proposals[prop].voteCount > winningVoteCount) {\n                winningVoteCount = proposals[prop].voteCount;\n                _winningProposal = prop;\n            }\n       assert(winningVoteCount>=1);\n    }\n}",
  "sourcePath": "F:/426/tEST - Copy/ballot-contract/contracts/Ballot.sol",
  "compiler": {
    "name": "solc",
    "version": "0.5.8+commit.23d335f2.Emscripten.clang"
  },
  "schemaVersion": "3.0.16",
  "updatedAt": "2019-11-10T00:42:38.517Z",
  "devdoc": {
    "methods": {}
  },
  "userdoc": {
    "methods": {}
  }
}